:1000000008308A00002800000A108A100A118207AE
:1000100028340F34013406340A108A100A1182077A
:100020000C3454343A3425346634203452343A345F
:10003000253466340A3453346134693464346134A9
:100040003D3425346C34643420342034203400347E
:10005000533084008313000803193B280630F8004E
:10006000F701F70B3128F80B30287B30F700F70B3E
:100070003728800B2E2800345A18402808124128AF
:100080000816831608128312DA184828881249289D
:1000900088168316881283125A195028081351287B
:1000A0000817831608138312DA1958288813592859
:1000B0008817831688138910831289148316891070
:1000C0008312891000348316091183120911D7088D
:1000D000031D6C2809116D28091583160911A63016
:1000E000F700F70B71280000891083128910580E51
:1000F000D9000F30D9055908DA003C2058080F39CB
:10010000D900DA003C20003483160812831208124A
:100110008316881283128812831608138312081319
:100120008316881383128813831609118312091109
:1001300083168910831289100F30D30028200130D4
:10014000C3004308033C031CAD280330DA003C2005
:100150000530D3002820C30AA1280230DA003C2051
:10016000C3014308033C031CBE2843080420C40009
:10017000D7014408D8006320C30AB1288A150A129F
:1001800074288E30F7004408F8004308F900FA019B
:10019000F808031DD5287908F800F9010830F7029E
:1001A000F808031DD528F701DD280310F81BDC280B
:1001B000F90DF80DF703D528F81300345208031988
:1001C0004E29DA00560803194E29DA070318EF28DA
:1001D0007F30DA02031C4E2903194E29F32881309F
:1001E000DA0703184E295A08F700F801F901FA0155
:1001F0005308DE00DE175408DD005508DC00183017
:10020000DA00DB015C1C1C295908FA07031C0E29C3
:10021000F90A031D0E29F80A0319DB175808F90714
:10022000031C1529F80A0319DB175708D400D41743
:100230005408F8070318DB17DB0DF80CF90CFA0C5F
:10024000DE0CDD0CDC0C0310DA0B01290130F707A2
:1002500003184E29F81B3329DE0DFA0DF90DF80DA0
:10026000F70303194E29DE1F4429FA0A031D442906
:10027000F90A031D4429F80A031D4429F80CF90C56
:10028000FA0CF70A03194E295308DB005708DB065E
:10029000DB1F4C29F8175229F8135229F701F801EE
:1002A000F901FA0100340030F8001F08C73978045A
:1002B0009F001030F700F70B5B2900001F151F1976
:1002C0005F2983161E088312BC001E08BD003D086E
:1002D000C4003C08C300C1200A30D5002830D40037
:1002E0002030D3007B30D2007A08D9007908D800BA
:1002F0007808D7007708D600DE207A08B30079089E
:10030000B2007808B1007708B0008A150A127C287C
:100310008E30F7004308F7024408F9004508F8005A
:10032000F917F70803199F290310F908031D9B29E2
:10033000F80803199F29F90CF80CF70B9429C41F2E
:10034000A629F809F909F80A0319F90A003408304E
:10035000F8001F08C73978049F001030F700F70B2A
:10036000AF2900001F151F19B32983161E08831219
:10037000BE001E08BF003F08C4003E08C300C120E5
:100380007A08D5007908D4007808D3007708D2001D
:100390002A30D900A630D8001830D7007E30D600D9
:1003A000DE207A08BB007908BA007808B90077081F
:1003B000B8003B08C6003A08C5003908C400380830
:1003C000C30088217908C4007808C300C40CC30C9A
:1003D000C40CC30CC40C43089500C40C440C303945
:1003E000F7001708CF39770497008A150A127F287B
:1003F0001830F8001F08C73978049F001030F70044
:10040000F70B002A00001F151F19042A83161E0867
:100410008312C0001E08C1004108C4004008C30088
:10042000C1207A08D5007908D4007808D30077086D
:10043000D200F030D9004D30D8007A30D7007D306E
:10044000D600DE207A08AB007908AA007808A90057
:100450007708A8008A150A12822880308318D006EF
:10046000D501D6014C08D4005008D4064B08031916
:100470001D2BD300F7004F080319262BD3020319B5
:10048000C22A031C802A5008D900D9175108D80065
:100490005208D700D6010310D90CD80CD70CD60CB3
:1004A000D30B4A2AD41F572A55143A2B55105310F0
:1004B00055164E30840083134F2B5512D41B6A2AD5
:1004C000531C752AD90CD80CD70CD60CF70A031973
:1004D000352B752AD91B782A0310D60DD70DD80DC8
:1004E000D90DF7030319352B6A2A5517E22A55133C
:1004F0004C08D400D41F7E2AD9172E2BD9132E2BAB
:100500004F08D300F7004B08D3024C08D900D91785
:100510004D08D8004E08D700D6010310D90CD80CCE
:10052000D70CD60CD30B8C2AD41F992AD5143A2B6E
:10053000D5105310D5165230840083134F2BD5128B
:10054000D41BAC2A531CB72AD90CD80CD70CD60C08
:10055000F70A0319352BB72AD91BBA2A0310D60D6F
:10056000D70DD80DD90DF7030319352BAC2AD517A4
:10057000E22AD5135008D400D41FC02AD9172E2B35
:10058000D9132E2B5008D900D9175108D80052087A
:10059000D700D41FCF2AD91355153A2B5511D601A0
:1005A00053104E30840083134F2BD41BF82A4C0871
:1005B000D400531CE22AD90CD80CD70CD60CF70A5D
:1005C0000319352BD61FF32AD70A031DF32AD80A9D
:1005D000031DF32AD90A031DF32AD90CD80CD70C12
:1005E000F70A0319352B551B772AD51BB92A172B68
:1005F0008030D906D91F002B3A2B5008D4000D2B80
:100600004C08D400D908031D0D2BD808031D0D2B51
:10061000D708031D0D2BF7012E2BD91B172B031009
:10062000D60DD70DD80DD90DF70B0D2B352BD41FAB
:100630001B2BD9172E2BD9132E2B4F08F700500840
:10064000D9005108D8005208D7002E2B4B08F700CC
:100650004C08D9004D08D8004E08D7005908F800BA
:100660005808F9005708FA006D2BF701F801F90155
:10067000FA016D2BD601D709D809D909D609D60AAE
:10068000031D482BD70A031D482BD80A0319D90A82
:100690005518562AD518982A5519CE2AFD2A000829
:1006A000D707031C592BD80A031D592BD90A031944
:1006B000531484030008D807031C612BD90A0319BB
:1006C000531484030008801F803AD9070318531479
:1006D000551A5D2AD51A9F2AD52A00344408CB0022
:1006E0004808CB06CB1F792B03110310C41B03143E
:1006F000AC2B4408CB004708CC004308CC020319BC
:10070000872BCB1FAC2B0308013A8300AC2B480886
:10071000CC004408CC020319932BCB1FAC2B03084D
:10072000013A8300AC2B4908CC004508CC020319E0
:100730009F2BCB1FAC2B0308013A8300AC2B4A083C
:10074000CC004608CC020319AB2BCB1FAC2B030803
:10075000013A8300AC2B0310003483143308CE001D
:100760003208CD003108CC003008CB002B08D20075
:100770002A08D1002908D0002808CF002D227A08A5
:10078000A3007908A2007808A1007708A0008310D0
:100790002708CE002608CD002508CC002408CB0071
:1007A0002308D2002208D1002108D0002008CF0061
:1007B0002D227A08A7007908A6007808A5007708F6
:1007C000A400D501D401D3017E30D2002308D90082
:1007D0002208D8002108D7002008D600DE2077089C
:1007E000C3007808C4007908C5007A08C600D5019E
:1007F000D401D3017E30D2002708D9002608D800C2
:100800002508D7002408D600DE2083104608CE0035
:100810004508CD004408CC004308CB007A08D2003C
:100820007908D1007808D0007708CF002D2277080A
:10083000C7007808C8007908C9007A08CA0083147C
:100840002F08CE002E08CD002D08CC002C08CB00A0
:100850002B08D2002A08D1002908D0002808CF0090
:100860002D22D501D401D3017F30D2007A08D900DE
:100870007908D8007808D7007708D600DE208310E2
:100880004A08CE004908CD004808CC004708CB00F4
:100890007A08D2007908D1007808D0007708CF0014
:1008A0002D227A08B7007908B6007808B5007708D5
:1008B000B4002B08AF002A08AE002908AD002808B4
:1008C000AC003708C6003608C5003508C400340837
:1008D000C300CA01C901C801C7016E23031C722CE1
:1008E0009B01A72CC6018030C5001830C400883099
:1008F000C3003708CA003608C9003508C8003408E4
:10090000C7006E23031C8B2C98309B001D08CF3929
:1009100020389D00A72C3708C6003608C5003508CA
:10092000C4003408C30088217908C4007808C300D3
:10093000C40CC30CC40CC30CC40C43089B00C40CF3
:10094000440C3039F7001D08CF3977049D008A1513
:100950000A1285285208B63CD200FA015308D60084
:10096000D3170310D30CD40CD50CFA0CF90CF80CDB
:10097000F70CD20BB12CD61FC82CF709F809F909CE
:10098000FA09F70A0319F80A0319F90A0319FA0A06
:100990000034F701F801F901FA01DA01DB01DC01A9
:1009A000DD0159085804570456040319072D203057
:1009B000DE000310D20DD30DD40DD50DDA0DDB0DF5
:1009C000DC0DDD0D59085D02031DF02C58085C029A
:1009D000031DF02C57085B02031DF02C56085A0229
:1009E000031C012D5608DA025708031C570FDB02BF
:1009F0005808031C580FDC025908031C590FDD026C
:100A00000314F70DF80DF90DFA0DDE0BD92C5A3041
:100A10008400831300340408C8004708CA0003197F
:100A20002A2D4608D5004508D4004408D3004308C1
:100A3000D200D901D8012030D7008230D600DE2084
:100A40007A08C6007908C5007808C4007708C30092
:100A5000CA0B112D4608D5004508D4004408D30020
:100A60004308D200AA247A08C6007908C50078088D
:100A7000C4007708C300C61F4A2DC803C816C3099F
:100A8000C409C509C609C30A0319C40A0319C50A5A
:100A90000319C60A3B30CF009A30CE00CA30CD00D1
:100AA000CC010A30CA0047080319C80A4608D50015
:100AB0004508D4004408D3004308D2004F08D900A9
:100AC0004E08D8004D08D7004C08D600C9240008AD
:100AD000C300840A0008C400840A0008C500840A10
:100AE0000008C600FD308407F708031D8A2D470A59
:100AF0004A0203198A2D480803198C2D0F394A021E
:100B00000319842D0318C02DC81BC02D481B8C2D24
:100B10002030BB2D2030C805C81E9B2DC8124708A9
:100B2000031DC8037708C8002D300C1E952D9900B1
:100B30004808F700C80147084A02031DAA2D770894
:100B4000C8002E300C1EA22D99004808F700203056
:100B5000C80500303030C81EBB2DC8124708031D21
:100B6000C8037708C8002D300C1EB42D9900480822
:100B7000F700C8013030F70777080C1EBD2D99002B
:100B80004F08D5004E08D4004D08D3004C08D200C1
:100B9000D901D801D7010A30D600C9247A08CF007C
:100BA0007908CE007808CD007708CC00CA0B562D06
:100BB000003452080C3A0319E72D063A0319EF2DB9
:100BC000073A0319EF2D053A0319052E0A2ED7010E
:100BD0000130D80063200230D3002820102E0130CD
:100BE000D3000230D400540BF62DF92D4030D5003F
:100BF000FA2DD50101305302D50755088038D600AB
:100C0000D7015608D8006320102ED7011030D80025
:100C10006320102E0130D7005208D8006320102E18
:100C200000340408CA004908CC000319302E4808D3
:100C3000D5004708D4004608D3004508D200D901A2
:100C4000D8012030D7008230D600DE207A08C800D4
:100C50007908C7007808C6007708C500CC0B172EA6
:100C60004808D5004708D4004608D3004508D200FC
:100C7000AA247A08C8007908C7007808C60077084F
:100C8000C500C81F502ECA03CA16C509C609C70920
:100C9000C809C50A0319C60A0319C70A0319C80AED
:100CA0003B30D1009A30D000CA30CF00CE010A309C
:100CB000CC0049080319CA0A4808D5004708D400DF
:100CC0004608D3004508D2005108D9005008D80082
:100CD0004F08D7004E08D600C9240008C500840A72
:100CE0000008C600840A0008C700840A0008C8007B
:100CF000FD308407F708031D902E490A4C020319A2
:100D0000902E4A080319922E0F394C0203198A2E8D
:100D10000318C22ECA1BC22E4A1B922E2030BE2E92
:100D20002030CA05CA1EA02ECA124908031DCA03D4
:100D30007708CA002D30D200D9254A08F700CA0129
:100D400049084C02031DAE2E7708CA002E30D2008F
:100D5000D9254A08F7002030CA0500303030CA1EB5
:100D6000BE2ECA124908031DCA037708CA002D30D7
:100D7000D200D9254A08F700CA013030F7077708B2
:100D8000D200D9255108D5005008D4004F08D3000F
:100D90004E08D200D901D801D7010A30D600C924A3
:100DA0007A08D1007908D0007808CF007708CE0003
:100DB000CC0B5C2E0034CE010408CD004E10831BFA
:100DC0004E14C71FEB2ECD174D1ECD0AC609C709FD
:100DD000C60A0319C70A470EF038C900C907E23E20
:100DE000CA00323ECC0047080F39CA07CA07CC07F1
:100DF000E93ECB00CB07CB07460E0F39CB07CC071C
:100E0000CB0DCC0DCC09CC0D46080F39CC07C90D44
:100E10000730C8000A30CC07CB03031C0B2FCB07CD
:100E2000CA03031C0F2FCA07C903031C132FC907CA
:100E3000C803031C172F48308400831307304D0567
:100E40004D1384034D05031D2C2F4D1A840A4D1A92
:100E50002C2F2030F700492F84074C30040203194F
:100E60004D170008F700031D3D2F4D1B3D2F4D1A58
:100E7000572FCD193D2F2030482FCD1F452F2D3016
:100E8000F70084034D13CD13492FCD154D1230308B
:100E9000F707C7010408C6004710831B47147708EB
:100EA000D200D92546088400831347188317840A83
:0A0EB0004D1F2D2F8A150A12482944
:10100000840183131F308305813083169900A63035
:10101000980090308312980083161F149F141F1598
:101020009F1107309C008312A401A501A601A7010E
:10103000AC01AD01AE01AF01FF30C20083161F103D
:101040009F101F119F111F1383121F139F178316C9
:101050009F1783121F148316091283129412C2124F
:1010600042088316870083124216420883168700BF
:101070008312C21142088316870001308312940044
:101080000030831694000108C739083881008312A4
:1010900090010030F800063892009B3083169200D1
:1010A00083124211420883168700831207110C3005
:1010B0009700C210420883168700831287100C30F5
:1010C0009D0095019B01073083169C000508103098
:1010D000F700F70B692800001C0883120D13831614
:1010E0009D018A11831284288A153230D3008A1117
:1010F00028208A158A1153298A158A11A7298A1549
:101100008A11F8298A158A11AD2B8A158930840035
:101110003308C6003208C5003108C4003008C300D7
:101120000230C7008A110B258A1520300C1E962824
:101130009900893084002B08C6002A08C5002908B8
:10114000C4002808C3000230C7008A110B258A1585
:1011500020300C1EA9289900893084002308C6007D
:101160002208C5002108C4002008C3000230C700BF
:101170008A110B258A1520300C1EBC289900893055
:1011800084003708C6003608C5003508C400340896
:10119000C3000230C7008A110B258A1520300C1EAF
:1011A000CF289900893084003B08C6003A08C50062
:1011B0003908C4003808C3000230C7008A110B2563
:1011C0008A150A300C1EE22899003708C600360836
:1011D000C5003508C4003408C3008A1188218A1567
:1011E0007908C4007808C3000C30D2008A11D925D0
:1011F0008A155430D2008A11D9258A153A30D20086
:101200008A11D9258A15893084002B08C8002A083C
:10121000C7002908C6002808C5000230C9008A1185
:1012200011268A152030D2008A11D9258A1552300C
:10123000D2008A11D9258A153A30D2008A11D925CF
:101240008A15893084003308C8003208C700310885
:10125000C6003008C5000230C9008A1111268A155F
:101260000A30C50045088A110C208A15C50AF70006
:10127000D2008A11D9258A1511304502031D322961
:10128000103084004408C7004308C6008A11DB2ED2
:101290008A152030D2008A11D9258A152030D20033
:1012A0008A11D9258A152030D2008A11D9258A15AC
:1012B0000430C300FA30D3008A1128208A15C30BEA
:0612C0005A297A286300A0
:02400E00393F38
:00000001FF
;PIC16F877A
